:020000040000FA
:06000000A7EF00F0120062
:020006000000F8
:08000800060EF66E000EF76E05
:10001000000EF86E00010900F550656F0900F550FB
:10002000666F03E1656701D03DD00900F550606F50
:100030000900F550616F0900F550626F0900090071
:10004000F550E96E0900F550EA6E09000900090053
:10005000F550636F0900F550646F09000900F6CF91
:1000600067F0F7CF68F0F8CF69F060C0F6FF61C0C5
:10007000F7FF62C0F8FF0001635302E1645307E039
:100080000900F550EE6E6307F8E26407F9D767C020
:10009000F6FF68C0F7FF69C0F8FF00016507000EB2
:0600A000665BBFD71200F1
:0A00A600D9CFE6FFE1CFD9FF020E2B
:1000B000E126DE6ADD6ADECF02F0DDCF03F0D89004
:1000C000035004E60A0E025C000E03580EE20B0E0B
:1000D000CF6EDB0ECE6ECD809EA0FED79E90CD90D3
:1000E000DF2A010E01E3DB2AE6D7020EE15C02E221
:1000F000E16AE552E16EE552E7CFD9FF1200D9CFB0
:10010000E6FFE1CFD9FF020EE126936A300ECD6EF5
:100110008182C9DF8192C7DFFBD7020EE15C02E278
:0E012000E16AE552E16EE552E7CFD9FF120029
:02012E00000EC1
:10013000F36E00EE00F0060E01D81200EA6002D065
:0E014000EE6AFCD7F350E9601200EE6AFCD7BD
:02014E0015EEAC
:1001500000F025EE00F0F86A019C04EC00F0B5EC2C
:0A01600000F07FEC00F0FBD7120066
:02016A00120081
:00000001FF
