:020000040000FA
:06000000FAEF00F012000F
:020006000000F8
:08000800D9CFE6FFE1CFD9FFDB
:10001000040EE126DE6ADD6ADECF02F0DDCF03F0FA
:10002000D890035004E6640E025C000E03581DE2F3
:10003000020EDB6A030EDB6A020EDBCF02F0030E58
:10004000DBCF03F0D890035004E6640E025C000E90
:10005000035806E2020EDB2A030E01E3DB2AECD78B
:10006000DF2A010E01E3DB2AD7D7040EE15C02E2AE
:10007000E16AE552E16EE552E7CFD9FF1200D9CF30
:10008000E6FFE1CFD9FF0F0EE126D9CFE9FFDACFA6
:10009000EAFF680EEE6E650EEE6E6C0EEE6EEE6EA4
:1000A0006F0EEE6E200EEE6E770EEE6E6F0EEE6E33
:1000B000720EEE6E6C0EEE6E640EEE6E0D0EEE6E49
:1000C000EE6ADB6A0E0EDB6A800E946EAB6E260E55
:1000D000AC6E810EAF6ED9CF02F0DACF03F00D0E09
:1000E000DB500224E96E0E0EDB500320EA6EEF5067
:1000F00018E0D9CF02F0DACF03F00D0EDB50022466
:10010000E96E0E0EDB500320EA6EEF50AD6E0D0E61
:10011000DB2A0E0E01E3DB2A9EA8FED79E9874DF31
:10012000DAD70F0EE15C02E2E16AE552E16EE552D8
:06013000E7CFD9FF120029
:0A013600060EF66E000EF76E000EC6
:10014000F86E00010900F550656F0900F550666F03
:1001500003E1656701D03DD00900F550606F0900EB
:10016000F550616F0900F550626F09000900F55004
:10017000E96E0900F550EA6E090009000900F55022
:10018000636F0900F550646F09000900F6CF67F04E
:10019000F7CF68F0F8CF69F060C0F6FF61C0F7FFF5
:1001A00062C0F8FF0001635302E1645307E00900F5
:1001B000F550EE6E6307F8E26407F9D767C0F6FF03
:1001C00068C0F7FF69C0F8FF00016507000E665BB5
:0401D000BFD7120083
:0C01D400000EF36E00EE00F0060E01D8E5
:1001E0001200EA6002D0EE6AFCD7F350E960120018
:0401F000EE6AFCD7E0
:0C01F40015EE00F025EE00F0F86A019C0A
:100200009BEC00F008EC01F03FEC00F0FBD7120093
:020210001200DA
:00000001FF
