:020000040000FA
:0600000010EF01F01200F8
:020006000000F8
:08000800D9CFE6FFE1CFD9FFDB
:10001000040EE126DE6ADD6ADECF00F0DDCF01F0FE
:10002000FD0EDBCF02F0FE0EDBCF03F00150031814
:10003000E8AE02D0033404D00250005C03500158F3
:100040001DE2020EDB6A030EDB6A020EDBCF00F05C
:10005000030EDBCF01F0D890015004E6F40E005CF3
:10006000010E015806E2020EDB2A030E01E3DB2A31
:10007000ECD7DF2A010E01E3DB2ACED7040EE15CC8
:1000800002E2E16AE552E16EE552E7CFD9FF1200E4
:10009000D9CFE6FFE1CFD9FFFD0EDB50836E829012
:1000A00082820A0EE66EE66AAFDFE552E552829280
:1000B000E552E7CFD9FF1200D9CFE6FFE1CFD9FF54
:1000C000FD0EDB50836E828082820A0EE66EE66A47
:1000D0009BDFE552E5528292E552E7CFD9FF12004D
:1000E0000C0EE66EE66AD4DFE552E552380EE66E97
:1000F000E66ACEDFE552E552010EE66EE66AC8DF3B
:10010000E552E552800EE66EE66AC2DFE552E55240
:100110001200D9CFE6FFE1CFD9FFE652956A94905D
:100120009492DEDF949C948E900EAB6E810EAF6E37
:10013000040EAC6E9EAAFED7AE50DF6EDFCF00F08D
:10014000016A00BE016800C0E6FF01C0E6FFB4DF3F
:10015000E552E5529E9AEED7E552E552E7CFD9FF38
:0201600012008B
:0E016200060EF66E000EF76E000EF86E00012F
:100170000900F550656F0900F550666F03E165678A
:1001800001D03DD00900F550606F0900F550616F56
:100190000900F550626F09000900F550E96E090089
:1001A000F550EA6E090009000900F550636F090077
:1001B000F550646F09000900F6CF67F0F7CF68F0DB
:1001C000F8CF69F060C0F6FF61C0F7FF62C0F8FFCA
:1001D0000001635302E1645307E00900F550EE6E3D
:1001E0006307F8E26407F9D767C0F6FF68C0F7FF56
:1001F00069C0F8FF00016507000E665BBFD71200FB
:10020000000EF36E00EE00F0060E01D81200EA6058
:1002100002D0EE6AFCD7F350E9601200EE6AFCD718
:1002200015EE00F025EE00F0F86A059CB1EC00F048
:0C0230001EEC01F089EC00F0FBD712007E
:02023C001200AE
:00000001FF
