:020000040000FA
:0600000054EF02F01200B3
:020006000000F8
:08000800D9CFE6FFE1CFD9FFDB
:10001000040EE126DE6ADD6ADECF14F0DDCF15F0D6
:10002000D890155004E6050E145C000E15581DE21C
:10003000020EDB6A030EDB6A020EDBCF14F0030E46
:10004000DBCF15F0D890155004E6F40E145C010EC9
:10005000155806E2020EDB2A030E01E3DB2AECD779
:10006000DF2A010E01E3DB2AD7D7040EE15C02E2AE
:10007000E16AE552E16EE552E7CFD9FF1200D9CF30
:10008000E6FFE1CFD9FFFE0EDB50836E82908282C5
:10009000BBDF8292E552E7CFD9FF1200D9CFE6FF4E
:1000A000E1CFD9FFFE0EDB50836E82808282ACDF0F
:1000B0008292E552E7CFD9FF12000C0EE66EDFDF29
:1000C000E552380EE66EDBDFE552010EE66ED7DF55
:1000D000E552800EE66ED3DFE5521200D9CFE6FF7F
:1000E000E1CFD9FF020EE126C00EE66EC8DFE55271
:1000F000030EDE6EDD6ADECF14F0DDCF15F00001F9
:10010000800E151418E1DECF14F0DDCF15F0D89075
:1001100014361536FD0EDB501424E96EFE0EDB504E
:100120001520EA6EEF50E66EB9DFE552DF06010EEC
:1001300001E2DB06E0D768DF020EE15C02E2E16A81
:10014000E552E16EE552E7CFD9FF1200D9CFE6FFC5
:10015000E1CFD9FF290EE126D9501C0FE96EDACF85
:10016000EAFF500EEE6E6F0EEE6E740EEE6E200E07
:10017000EE6E760EEE6E610EEE6E6C0EEE6E200E74
:10018000EE6E690EEE6E730EEE6E3A0EEE6E200E91
:10019000EE6EEE6A956A946A92688FDF060EDB6AED
:1001A000070EDB6AD9501C0F146EDACF15F0060E5D
:1001B000DB501424E96E070EDB501520EA6EEF5079
:1001C00017E0D9501C0F146EDACF15F0060EDB5075
:1001D0001424E96E070EDB501520EA6EEF50E66E30
:1001E0005DDFE552060EDB2A070E01E3DB2ADAD7D4
:1001F000010EC26E0E0EC16E800EC06EC282C2A211
:1002000080D0C450DE6EDD6ADECF14F0DDCF15F095
:1002100014C015F0146A14C0DEFF15C0DDFFC35012
:10022000E76E000EDFCF14F0010EDBCF15F0E750C4
:100230001426000E152214C0DEFF15C0DDFF060EC9
:10024000DB6A070EDB6A060EDBCF14F0070EDBCF8E
:1002500015F0D890155004E6040E145C000E1558E5
:1002600046E2DECF16F0DDCF17F00A0E0D6E0E6AF5
:1002700016C008F017C009F08CEC01F004C016F0AD
:1002800005C017F0300E1626000E1722D950080FA1
:10029000146EDACF15F0020E086E096A060EDBCF77
:1002A0000DF0070EDBCF0EF0B2EC01F01450062477
:1002B000E96E15500720EA6E16C0EEFF17C0EDFF7D
:1002C0000A0E146E156A14C00DF015C00EF0DECFC4
:1002D00008F0DDCF09F08CEC01F008C0DEFF09C0AA
:1002E000DDFF060EDB2A070E01E3DB2AACD7D9506F
:1002F000080FE66E000EDA20E66EF0DEE552E552FB
:100300007ED776D7290EE15C02E2E16AE552E16E22
:08031000E552E7CFD9FF12000E
:08031800006A0EAE95EF01F042
:100320000D6C0E1EE86A0E22001E09AE9DEF01F054
:10033000086C091EE86A0922001E2EEC02F009BEB4
:10034000ADEF01F000AE000C086C091EE86A09224E
:10035000046C051EE86A0522000C00BEA4EF01F043
:100360000188FF0C09C013F008C012F008500D02FC
:10037000F4CF07F0F3CF06F009500E02F4CF09F0E6
:10038000F3CF08F00D02F3500726F4500822E86A74
:10039000092212500E02F3500726F4500822E86A90
:1003A00009220EAED8EF01F01250085E1350095A20
:0E03B00013AE000C0D50085E0E50095A000CE2
:0203BE00060E29
:1003C000F66E000EF76E000EF86E00010900F55093
:1003D000656F0900F550666F03E1656701D03DD098
:1003E0000900F550606F0900F550616F0900F55084
:1003F000626F09000900F550E96E0900F550EA6ED8
:10040000090009000900F550636F0900F550646F99
:1004100009000900F6CF67F0F7CF68F0F8CF69F070
:1004200060C0F6FF61C0F7FF62C0F8FF00016353D0
:1004300002E1645307E00900F550EE6E6307F8E24D
:100440006407F9D767C0F6FF68C0F7FF69C0F8FF17
:0C04500000016507000E665BBFD71200BC
:04045C00056A046ABF
:10046000100EE76ED89008360936043605360D5062
:10047000045C0E50055805E30D50045E0E50055AFD
:08048000082AE72EF0D7120054
:08048800000EF36E00EE00F01F
:10049000060E01D81200EA6002D0EE6AFCD7F350D3
:0804A000E9601200EE6AFCD7CE
:0804A80015EE00F025EE00F056
:1004B000F86A019CDFEC01F062EC02F0A6EC00F0BF
:0404C000FBD7120054
:0204C400120024
:00000001FF
