:020000040000FA
:06000000C2EF01F0120046
:020006000000F8
:08000800D9CFE6FFE1CFD9FFDB
:10001000040EE126DE6ADD6ADECF02F0DDCF03F0FA
:10002000D890035004E6F40E025C010E03581DE262
:10003000020EDB6A030EDB6A020EDBCF02F0030E58
:10004000DBCF03F0D890035004E60A0E025C000EEA
:10005000035806E2020EDB2A030E01E3DB2AECD78B
:10006000DF2A010E01E3DB2AD7D7040EE15C02E2AE
:10007000E16AE552E16EE552E7CFD9FF1200D9CF30
:10008000E6FFE1CFD9FFFD0EDB50836E82908282C6
:10009000050EE66EE66AB8DFE552E5528292E55259
:1000A000E7CFD9FF1200D9CFE6FFE1CFD9FFFD0E90
:1000B000DB50836E82808282050EE66EE66AA4DFE4
:1000C000E552E5528292E552E7CFD9FF1200380E91
:1000D000E66EE66AD4DFE552E5520A0EE66EE66A9F
:1000E00093DFE552E5520E0EE66EE66AC8DFE55292
:1000F000E5520A0EE66EE66A87DFE552E552010E2A
:10010000E66EE66ABCDFE552E5520A0EE66EE66A86
:100110007BDFE552E552800EE66EE66AB0DFE5521F
:10012000E5521200956A946A0F0E936EC16ECFDF8E
:100130008188819C819A81A00ED0310EE66EE66A9C
:10014000B2DFE552E55281B0FED70A0EE66EE66AEE
:100150005BDFE552E55281A20ED0340EE66EE66A10
:10016000A2DFE552E55281B2FED70A0EE66EE66ADC
:100170004BDFE552E55281A40ED0370EE66EE66AFB
:1001800092DFE552E55281B4FED70A0EE66EE66ACA
:100190003BDFE552E55281A60ED02A0EE66EE66AF6
:1001A00082DFE552E55281B6FED70A0EE66EE66AB8
:1001B0002BDFE552E552818A819C819881A00ED087
:1001C000320EE66EE66A6FDFE552E55281B0FED789
:1001D0000A0EE66EE66A18DFE552E55281A20ED0FD
:1001E000350EE66EE66A5FDFE552E55281B2FED774
:1001F0000A0EE66EE66A08DFE552E55281A40ED0EB
:10020000380EE66EE66A4FDFE552E55281B4FED75E
:100210000A0EE66EE66AF8DEE552E55281A60ED0D9
:10022000300EE66EE66A3FDFE552E55281B6FED754
:100230000A0EE66EE66AE8DEE552E552818C8198A8
:10024000819A81A00ED0330EE66EE66A2CDFE5526D
:10025000E55281B0FED70A0EE66EE66AD5DEE552BB
:10026000E55281A20ED0360EE66EE66A1CDFE5523C
:10027000E55281B2FED70A0EE66EE66AC5DEE552A9
:10028000E55281A40ED0390EE66EE66A0CDFE55227
:10029000E55281B4FED70A0EE66EE66AB5DEE55297
:1002A000E55281A60ED0230EE66EE66AFCDEE5522C
:1002B000E55281B6FED70A0EE66EE66AA5DEE55285
:0602C000E55236D71200E2
:0A02C600060EF66E000EF76E000E35
:1002D000F86E00010900F550656F0900F550666F72
:1002E00003E1656701D03DD00900F550606F09005A
:1002F000F550616F0900F550626F09000900F55073
:10030000E96E0900F550EA6E090009000900F55090
:10031000636F0900F550646F09000900F6CF67F0BC
:10032000F7CF68F0F8CF69F060C0F6FF61C0F7FF63
:1003300062C0F8FF0001635302E1645307E0090063
:10034000F550EE6E6307F8E26407F9D767C0F6FF71
:1003500068C0F7FF69C0F8FF00016507000E665B23
:04036000BFD71200F1
:0C036400000EF36E00EE00F0060E01D853
:100370001200EA6002D0EE6AFCD7F350E960120086
:04038000EE6AFCD74E
:0C03840015EE00F025EE00F0F86A019C78
:1003900063EC01F0D0EC01F092EC00F0FBD712001E
:0203A000120049
:00000001FF
