:020000040000FA
:06000000F5EF01F0120013
:020006000000F8
:08000800D9CFE6FFE1CFD9FFDB
:10001000040EE126DE6ADD6ADECF00F0DDCF01F0FE
:10002000FD0EDBCF02F0FE0EDBCF03F00150031814
:10003000E8AE02D0033404D00250005C03500158F3
:100040001DE2020EDB6A030EDB6A020EDBCF00F05C
:10005000030EDBCF01F0D890015004E6E90E005CFE
:10006000000E015806E2020EDB2A030E01E3DB2A32
:10007000ECD7DF2A010E01E3DB2ACED7040EE15CC8
:1000800002E2E16AE552E16EE552E7CFD9FF1200E4
:100090000F0EC16E956A936A946A380EE66E18D98F
:1000A000E5520A0EE66EE66AAFDFE552E5520E0E45
:1000B000E66E0ED9E5520A0EE66EE66AA5DFE55257
:1000C000E552010EE66E04D9E5520A0EE66EE66AC6
:1000D0009BDFE552E552800EE66EFAD8E552060E39
:1000E000E66EF6D8E5520A0EE66EE66A8DDFE55258
:1000F000E552FE0E816EEE0E815C0EE1EE0E815C2D
:1001000001E1FCD7370EE66EF7D8E552640EE66ED5
:10011000E66A7ADFE552E552DE0E815C0EE1380ECA
:10012000E66EEAD8E552DE0E815C01E1FCD7640E92
:10013000E66EE66A69DFE552E552BE0E815C0AE1D1
:10014000390EE66ED9D8E552640EE66EE66A5CDFDB
:10015000E552E5527E0E815C0AE12F0EE66ECCD8A8
:10016000E552640EE66EE66A4FDFE552E552FD0E9B
:10017000816EED0E815C0AE1340EE66EBDD8E5526B
:10018000640EE66EE66A40DFE552E552DD0E815C04
:100190000AE1350EE66EB0D8E552640EE66EE66A08
:1001A00033DFE552E552BD0E815C0AE1360EE66EA4
:1001B000A3D8E552640EE66EE66A26DFE552E55204
:1001C0007D0E815C0AE12A0EE66E96D8E552640E39
:1001D000E66EE66A19DFE552E552FB0E816EEB0E24
:1001E000815C0EE1EB0E815C01E1FCD7310EE66E25
:1001F00083D8E552640EE66EE66A06DFE552E55204
:10020000DB0E815C0AE1320EE66E76D8E552640EB2
:10021000E66EE66AF9DEE552E552BB0E815C0AE164
:10022000330EE66E69D8E552640EE66EE66AECDEE1
:10023000E552E5527B0E815C0AE12D0EE66E5CD83C
:10024000E552640EE66EE66ADFDEE552E552F70E31
:10025000816EE70E815C0FE1430EE66E4DD8E552EC
:10026000F40EE66E010EE66ECFDEE552E552010EAB
:10027000E66E2ED8E552B70E815C0AE1230EE66EDB
:100280003BD8E552640EE66EE66ABEDEE552E55204
:10029000D70E815C0AE1300EE66E2ED8E5520A0ECA
:1002A000E66EE66AB1DEE552E552770E815C0EE15C
:1002B000770E815C01E1FCD72B0EE66E1DD8E5526E
:1002C0000A0EE66EE66AA0DEE552E55212D712008B
:1002D000D9CFE6FFE1CFD9FFFE0EDB50836E8290CF
:1002E00082820A0EE66EE66A8FDEE552E55282925F
:1002F000E552E7CFD9FF1200D9CFE6FFE1CFD9FF12
:10030000FE0EDB50836E828082820A0EE66EE66A03
:100310007BDEE552E5528292640EE66EE66A74DE9A
:0C032000E552E552E552E7CFD9FF12008C
:04032C00060EF66E55
:10033000000EF76E000EF86E00010900F550656FB3
:100340000900F550666F03E1656701D03DD00900F3
:10035000F550606F0900F550616F0900F550626F4C
:1003600009000900F550E96E0900F550EA6E090030
:1003700009000900F550636F0900F550646F09002A
:100380000900F6CF67F0F7CF68F0F8CF69F060C0EA
:10039000F6FF61C0F7FF62C0F8FF0001635302E19E
:1003A000645307E00900F550EE6E6307F8E2640756
:1003B000F9D767C0F6FF68C0F7FF69C0F8FF000112
:0A03C0006507000E665BBFD7120050
:0603CA00000EF36E00EED0
:1003D00000F0060E01D81200EA6002D0EE6AFCD7E7
:0A03E000F350E9601200EE6AFCD74A
:0603EA0015EE00F025EE07
:1003F00000F0F86A059C96EC01F003EC02F048EC82
:0604000000F0FBD7120022
:020406001200E2
:00000001FF
