:020000040000FA
:0600000024EF02F01200E3
:0A00060001006604000094000000F1
:0400100001000000EB
:0C001400D9CFE6FFE1CFD9FF040EE126B2
:10002000DE6ADD6ADECF02F0DDCF03F0D890035048
:1000300004E6F40E025C010E03581DE2020EDB6AB8
:10004000030EDB6A020EDBCF02F0030EDBCF03F000
:10005000D890035004E60A0E025C000E035806E234
:10006000020EDB2A030E01E3DB2AECD7DF2A010EA6
:1000700001E3DB2AD7D7040EE15C02E2E16AE55234
:10008000E16EE552E7CFD9FF1200D9CFE6FFE1CF0D
:10009000D9FFFD0EDB50836E82908282050EE66EE4
:1000A000E66AB8DFE552E5528292E552E7CFD9FF22
:1000B0001200D9CFE6FFE1CFD9FFFD0EDB50836EF2
:1000C00094C0E9FFEA6AE9BEEA68D890E936EA3600
:1000D000600EE926000EEA22FD0EDBCFEEFFFE0EDB
:1000E000DBCFEDFF0001942B82808282050EE66E4D
:1000F000E66A90DFE552E5528292E552E7CFD9FFFA
:100100001200380EE66EE66AC0DFE552E5520A0ECE
:10011000E66EE66A7FDFE552E5520E0EE66EE66AAF
:10012000B4DFE552E5520A0EE66EE66A73DFE55289
:10013000E552010EE66EE66AA8DFE552E5520A0EC8
:10014000E66EE66A67DFE552E552800EE66EE66A25
:100150009CDFE552E5521200956A946A0F0E936E89
:10016000816AC16ECEDF8188819E819C819A81A047
:100170000ED0370EE66EE66A9CDFE552E55281B09E
:10018000FED70A0EE66EE66A45DFE552E55281A229
:100190000ED0340EE66EE66A8CDFE552E55281B28F
:1001A000FED70A0EE66EE66A35DFE552E55281A417
:1001B0000ED0310EE66EE66A7CDFE552E55281B480
:1001C000FED70A0EE66EE66A25DFE552E55281A605
:1001D0000ED0630EE66EE66A6CDFE552E55281B63C
:1001E000FED70A0EE66EE66A15DFE552E552818A11
:1001F000819E819C819881A00ED0380EE66EE66AC1
:1002000058DFE552E55281B0FED70A0EE66EE66A87
:1002100001DFE552E55281A20ED0350EE66EE66AA8
:1002200048DFE552E55281B2FED70A0EE66EE66A75
:10023000F1DEE552E55281A40ED0320EE66EE66A9A
:1002400038DFE552E55281B4FED70A0EE66EE66A63
:10025000E1DEE552E55281A60ED0300EE66EE66A8A
:1002600028DFE552E55281B6FED70A0EE66EE66A51
:10027000D1DEE552E552818C819E8198819A81A0E0
:100280000ED0390EE66EE66A14DFE552E55281B013
:10029000FED70A0EE66EE66ABDDEE552E55281A2A1
:1002A0000ED0360EE66EE66A04DFE552E55281B204
:1002B000FED70A0EE66EE66AADDEE552E55281A48F
:1002C0000ED0330EE66EE66AF4DEE552E55281B4F6
:1002D000FED70A0EE66EE66A9DDEE552E55281A67D
:1002E0000ED03D0EE66EE66AE4DEE552E55281B6DA
:1002F000FED70A0EE66EE66A8DDEE552E552818E85
:10030000819C8198819A81A00ED02F0EE66EE66ABC
:10031000D0DEE552E55281B0FED70A0EE66EE66AFF
:1003200079DEE552E55281A20ED0780EE66EE66ADD
:10033000C0DEE552E55281B2FED70A0EE66EE66AED
:1003400069DEE552E55281A40ED02D0EE66EE66A16
:10035000B0DEE552E55281B4FED70A0EE66EE66ADB
:1003600059DEE552E55281A60ED02B0EE66EE66A06
:10037000A0DEE552E55281B6FED70A0EE66EE66AC9
:0A03800049DEE552E552EFD6120007
:06038A00060EF66E000EE7
:10039000F76E000EF86E00010900F5508F6F09002E
:1003A000F550906F03E18F6701D03DD00900F55003
:1003B0008A6F0900F5508B6F0900F5508C6F0900AA
:1003C0000900F550E96E0900F550EA6E09000900D0
:1003D0000900F5508D6F0900F5508E6F0900090076
:1003E000F6CF91F0F7CF92F0F8CF93F08AC0F6FFF6
:1003F0008BC0F7FF8CC0F8FF00018D5302E18E53D4
:1004000007E00900F550EE6E8D07F8E28E07F9D788
:1004100091C0F6FF92C0F7FF93C0F8FF00018F076D
:08042000000E905BBFD7120033
:08042800000EF36E00EE00F07F
:10043000060E01D81200EA6002D0EE6AFCD7F35033
:08044000E9601200EE6AFCD72E
:0804480015EE00F025EE00F0B6
:10045000F86A019CC5EC01F032EC02F0ACEC00F063
:04046000FBD71200B4
:02046400120084
:010466000095
:00000001FF
