:020000040000FA
:06000000E1EF02F0120026
:020006000000F8
:08000800D9CFE6FFE1CFD9FFDB
:10001000040EE126DE6ADD6ADECF14F0DDCF15F0D6
:10002000FD0EDBCF16F0FE0EDBCF17F017501518C4
:10003000E8AE02D0153404D01450165C1550175891
:100040001CE3020EDB6A030EDB6A020EDBCF14F048
:10005000030EDBCF15F0153404E214500A08000E2D
:10006000155406E3020EDB2A030E01E3DB2AEDD76B
:10007000DF2A010E01E3DB2ACFD7040EE15C02E2A6
:10008000E16AE552E16EE552E7CFD9FF1200D9CF20
:10009000E6FFE1CFD9FF220EE1263F0EF36E0E0EF2
:1000A000F3CFDBFF0F0EDB6A060EF36E100EF3CFFD
:1000B000DBFF110EDB6A5B0EF36E120EF3CFDBFF7C
:1000C000130EDB6A4F0EF36E140EF3CFDBFF150E2B
:1000D000DB6A660EF36E160EF3CFDBFF170EDB6ADC
:1000E0006D0EF36E180EF3CFDBFF190EDB6A7D0E7B
:1000F000F36E1A0EF3CFDBFF1B0EDB6A070EF36EF7
:100100001C0EF3CFDBFF1D0EDB6A7F0EF36E1E0E9F
:10011000F3CFDBFF1F0EDB6A6F0EF36E200EF3CF03
:10012000DBFF210EDB6AFD0EDBCF14F0FE0EDBCF12
:1001300015F00A0E0D6E0E6A14C008F015C009F015
:1001400019EC02F004C014F005C015F0060E14C03E
:10015000DBFF070E15C0DBFF0A0E146E156AFD0EDD
:10016000DBCF08F0FE0EDBCF09F014C00DF015C098
:100170000EF019EC02F0FD0E08C0DBFFFE0E09C008
:10018000DBFFFD0EDBCF14F0FE0EDBCF15F00A0E09
:100190000D6E0E6A14C008F015C009F019EC02F0DB
:1001A00004C014F005C015F0080E14C0DBFF090EE2
:1001B00015C0DBFF0A0E146E156AFD0EDBCF08F0CA
:1001C000FE0EDBCF09F014C00DF015C00EF019ECD7
:1001D00002F0FD0E08C0DBFFFE0E09C0DBFFFD0EC6
:1001E000DBCF14F0FE0EDBCF15F00A0E0D6E0E6A9B
:1001F00014C008F015C009F019EC02F004C014F0A6
:1002000005C015F00A0E14C0DBFF0B0E15C0DBFF96
:100210000A0E146E156AFD0EDBCF08F0FE0EDBCF62
:1002200009F014C00DF015C00EF019EC02F0FD0E2F
:1002300008C0DBFFFE0E09C0DBFFFD0EDBCF14F0B4
:10024000FE0EDBCF15F00A0E0D6E0E6A14C008F01C
:1002500015C009F019EC02F004C014F005C015F047
:100260000C0E14C0DBFF0D0E15C0DBFFDE6ADD6A6D
:10027000DECF14F0DDCF15F0FB0EDBCF16F0FC0E59
:10028000DBCF17F00A0E1702F3CF17F01602F3CFE9
:1002900016F0F450172615501718E8AE02D0173490
:1002A00004D01650145C1750155801E385D082868F
:1002B0008290D9500E0F146EDACF15F0020E086E30
:1002C000096A060EDBCF0DF0070EDBCF0EF03FEC18
:1002D00002F014500624E96E15500720EA6EEF5024
:1002E000836E030EE66EE66A8FDEE552E55282808B
:1002F0008292D9500E0F146EDACF15F0020E086EEE
:10030000096A080EDBCF0DF0090EDBCF0EF03FECD3
:1003100002F014500624E96E15500720EA6EEF50E3
:10032000836E030EE66EE66A6FDEE552E552828268
:100330008294D9500E0F146EDACF15F0020E086EAB
:10034000096A0A0EDBCF0DF00B0EDBCF0EF03FEC8F
:1003500002F014500624E96E15500720EA6EEF50A3
:10036000836E030EE66EE66A4FDEE552E552828446
:100370008296D9500E0F146EDACF15F0020E086E69
:10038000096A0C0EDBCF0DF00D0EDBCF0EF03FEC4B
:1003900002F014500624E96E15500720EA6EEF5063
:1003A000836E030EE66EE66A2FDEE552E552DF2A23
:1003B000010E01E3DB2A5CD78268220EE15C02E2D7
:1003C000E16AE552E16EE552E7CFD9FF1200D9CFDD
:1003D000E6FFE1CFD9FF020EE126956A946ADE6A54
:1003E000DD6ADECF14F0DDCF15F0D890155004E6AD
:1003F000100E145C270E155811E20A0EE66EE66A1E
:10040000DECFE6FFDDCFE6FF42DEE552E552E55204
:10041000E552DF2A010E01E3DB2AE3D7E0D7020E23
:10042000E15C02E2E16AE552E16EE552E7CFD9FF15
:020430001200B8
:0E043200006A0EAE22EF02F00D6C0E1EE86A9C
:100440000E22001E09AE2AEF02F0086C091EE86AAF
:100450000922001EBBEC02F009BE3AEF02F000AE2A
:10046000000C086C091EE86A0922046C051EE86A83
:100470000522000C00BE31EF02F00188FF0C09C01C
:1004800013F008C012F008500D02F4CF07F0F3CFBC
:1004900006F009500E02F4CF09F0F3CF08F00D0278
:1004A000F3500726F4500822E86A092212500E027F
:1004B000F3500726F4500822E86A09220EAE65EFD1
:1004C00002F01250085E1350095A13AE000C0D5082
:0804D000085E0E50095A000CF1
:0804D800060EF66E000EF76E31
:1004E000000EF86E00010900F550656F0900F55027
:1004F000666F03E1656701D03DD00900F550606F7C
:100500000900F550616F0900F550626F090009009C
:10051000F550E96E0900F550EA6E0900090009007E
:10052000F550636F0900F550646F09000900F6CFBC
:1005300067F0F7CF68F0F8CF69F060C0F6FF61C0F0
:10054000F7FF62C0F8FF0001635302E1645307E064
:100550000900F550EE6E6307F8E26407F9D767C04B
:10056000F6FF68C0F7FF69C0F8FF00016507000EDD
:06057000665BBFD712001C
:0A057600056A046A100EE76ED890C3
:1005800008360936043605360D50045C0E50055801
:1005900005E30D50045E0E50055A082AE72EF0D7E9
:0205A000120047
:0E05A200000EF36E00EE00F0060E01D81200FF
:1005B000EA6002D0EE6AFCD7F350E9601200EE6AFE
:0205C000FCD766
:0E05C20015EE00F025EE00F0F86A019C6CECDE
:0E05D00002F0EFEC02F0E7EC01F0FBD71200B6
:0205DE00120009
:00000001FF
