:020000040000FA
:06000000E8EF01F0120020
:020006000000F8
:08000800D9CFE6FFE1CFD9FFDB
:10001000040EE126DE6ADD6ADECF14F0DDCF15F0D6
:10002000FD0EDBCF16F0FE0EDBCF17F015501718C4
:10003000E8AE02D0173404D01650145C175015588F
:100040001CE2020EDB6A030EDB6A020EDBCF14F049
:10005000030EDBCF15F0153404E214506408000ED3
:10006000155406E3020EDB2A030E01E3DB2AEDD76B
:10007000DF2A010E01E3DB2ACFD7040EE15C02E2A6
:10008000E16AE552E16EE552E7CFD9FF1200D9CF20
:10009000E6FFE1CFD9FF1A0EE1263F0EDE6EDD6AE4
:1000A000060EF36E020EF3CFDBFF030EDB6A5B0E70
:1000B000F36E040EF3CFDBFF050EDB6A4F0EF36E1B
:1000C000060EF3CFDBFF070EDB6A660EF36E080E3B
:1000D000F3CFDBFF090EDB6A6D0EF36E0A0EF3CF72
:1000E000DBFF0B0EDB6A7D0EF36E0C0EF3CFDBFF36
:1000F0000D0EDB6A070EF36E0E0EF3CFDBFF0F0E55
:10010000DB6A7F0EF36E100EF3CFDBFF110EDB6A9E
:100110006F0EF36E120EF3CFDBFF130EDB6A956AE0
:10012000946A140EDB6A150EDB6A140EDBCF14F032
:10013000150EDBCF15F0D890155004E6640E145C54
:10014000000E155872E20A0E146E156A140EDBCFFB
:1001500008F0150EDBCF09F014C00DF015C00EF03D
:1001600020EC01F0160E08C0DBFF170E09C0DBFF04
:10017000140EDBCF14F0150EDBCF15F00A0E0D6E4A
:100180000E6A14C008F015C009F020EC01F004C09C
:1001900014F005C015F0180E14C0DBFF190E15C0C1
:1001A000DBFF82808292D9CF14F0DACF15F0020EF5
:1001B000086E096A180EDBCF0DF0190EDBCF0EF0BA
:1001C00046EC01F014500624E96E15500720EA6E43
:1001D000EF50836E140EE66EE66A16DFE552E552C6
:1001E00082828290D9CF14F0DACF15F0020E086E19
:1001F000096A160EDBCF0DF0170EDBCF0EF046ECC2
:1002000001F014500624E96E15500720EA6EEF50F5
:10021000836E140EE66EE66AF7DEE552E552140EC2
:10022000DB2A150E01E3DB2A80D77BD71A0EE15CAF
:1002300002E2E16AE552E16EE552E7CFD9FF120032
:10024000006A0EAE29EF01F00D6C0E1EE86A0E2258
:10025000001E09AE31EF01F0086C091EE86A0922A0
:10026000001EC2EC01F009BE41EF01F000AE000C2F
:10027000086C091EE86A0922046C051EE86A05225A
:10028000000C00BE38EF01F00188FF0C09C013F02C
:1002900008C012F008500D02F4CF07F0F3CF06F0BB
:1002A00009500E02F4CF09F0F3CF08F00D02F3501D
:1002B0000726F4500822E86A092212500E02F35071
:1002C0000726F4500822E86A09220EAE6CEF01F00E
:1002D0001250085E1350095A13AE000C0D50085E00
:0602E0000E50095A000C4B
:0A02E600060EF66E000EF76E000E15
:1002F000F86E00010900F550656F0900F550666F52
:1003000003E1656701D03DD00900F550606F090039
:10031000F550616F0900F550626F09000900F55052
:10032000E96E0900F550EA6E090009000900F55070
:10033000636F0900F550646F09000900F6CF67F09C
:10034000F7CF68F0F8CF69F060C0F6FF61C0F7FF43
:1003500062C0F8FF0001635302E1645307E0090043
:10036000F550EE6E6307F8E26407F9D767C0F6FF51
:1003700068C0F7FF69C0F8FF00016507000E665B03
:04038000BFD71200D1
:0C038400056A046A100EE76ED890083677
:100390000936043605360D50045C0E50055805E349
:1003A0000D50045E0E50055A082AE72EF0D71200B1
:1003B000000EF36E00EE00F0060E01D81200EA60A7
:1003C00002D0EE6AFCD7F350E9601200EE6AFCD767
:1003D00015EE00F025EE00F0F86A019C73EC01F0D8
:0C03E000F6EC01F047EC00F0FBD7120037
:0203EC001200FD
:00000001FF
