:020000040000FA
:06000000E8EF00F0120021
:020006000000F8
:08000800D9CFE6FFE1CFD9FFDB
:10001000040EE126DE6ADD6ADECF00F0DDCF01F0FE
:10002000D890015004E6640E005C000E01581DE2F9
:10003000020EDB6A030EDB6A020EDBCF00F0030E5A
:10004000DBCF01F0D890015004E6640E005C000E96
:10005000015806E2020EDB2A030E01E3DB2AECD78D
:10006000DF2A010E01E3DB2AD7D7040EE15C02E2AE
:10007000E16AE552E16EE552E7CFD9FF1200D9CF30
:10008000E6FFE1CFD9FF020EE126946A0C0EBD6EA9
:10009000CA94CA82CA90CA84CC6A0B0ECB6EDE6A3E
:1000A000DD6ADECF00F0DDCF01F0CB50026E036AD7
:1000B00003500118E8AE02D0013404D00050025CB5
:1000C0000150035808E3DF50BE6E9EDFDF2A010EA9
:1000D00001E3DB2AE6D7CB50DE6EDD6ADECF00F02F
:1000E000DDCF01F00001800E011408E1DF50BE6E8B
:1000F0008BDFDF06010E01E2DB06F0D7D0D7020E60
:10010000E15C02E2E16AE552E16EE552E7CFD9FF38
:020110001200DB
:0E011200060EF66E000EF76E000EF86E00017F
:100120000900F550656F0900F550666F03E16567DA
:1001300001D03DD00900F550606F0900F550616FA6
:100140000900F550626F09000900F550E96E0900D9
:10015000F550EA6E090009000900F550636F0900C7
:10016000F550646F09000900F6CF67F0F7CF68F02B
:10017000F8CF69F060C0F6FF61C0F7FF62C0F8FF1A
:100180000001635302E1645307E00900F550EE6E8D
:100190006307F8E26407F9D767C0F6FF68C0F7FFA6
:1001A00069C0F8FF00016507000E665BBFD712004B
:1001B000000EF36E00EE00F0060E01D81200EA60A9
:1001C00002D0EE6AFCD7F350E9601200EE6AFCD769
:1001D00015EE00F025EE00F0F86A059C89EC00F0C1
:0C01E000F6EC00F03FEC00F0FBD7120042
:0201EC001200FF
:00000001FF
